:020000040000FA
:0400000057EF00F0C6
:10000800F901F901F901F901F901F901F901F90118
:10001800F901F901F901F901F901F901F901F90108
:10002800F901F901F901F901F901F901F901F901F8
:10003800F901F901F901F901F901F901F901CF0112
:10004800F901F901F901F9012B00F901F901F901A7
:10005800F901F901F901F901F901F901F901F901C8
:10006800F901F901F901F901F901F901F901F901B8
:10007800F901F9012B00F901F901F9012B002B0015
:100088002B002B002B002B002B002B00F901F90172
:10009800F901F901F901F9012B002B002B002B00C4
:1000A800F901F901FF00D6EF03F0000E186E7F0E7C
:1000B800196E7F0E1A6E7F0E1B6E1C68000E3A01B9
:1000C800406F000EBA6E010EC26E000E506F000E29
:1000D800BB6EDF0EC36E000E606F000EBC6E010EAD
:1000E800C46E000E706F000EBD6E010EC56E000E60
:1000F800806F000EBE6EC668BF910E0EDE6F0F0ECB
:10010800DF6F000EE06F1F0E0D6FBF813D0115817F
:1001180015831585158B159D1493149516911693B3
:100128001695010E1C6F000E196F148FF00EB8167D
:10013800B898B950F00B0109B96EB988B9501F0BBE
:100148006009B96E000EB66E7C0EB76EB88ED28A94
:10015800D28ED28C3901838F938FA39FD28E000EBB
:10016800016E000E026EFF0E75EC03F0600004F0E5
:100178000CF0600008F00DF060000CF00EF0E7ECF9
:1001880003F0210E106E780E0F6E980EE82EFED733
:100198000F2EFCD7102EFAD700D0FF0E016E000EDE
:1001A800026E000E75EC03F0600004F00CF06000C5
:1001B80008F00DF060000CF00EF0E7EC03F0210EF3
:1001C800106E780E0F6E980EE82EFED70F2EFCD705
:1001D800102EFAD700D0000E016EFF0E026E000E30
:1001E80075EC03F0600004F00CF0600008F00DF00E
:1001F80060000CF00EF0E7EC03F0210E106E780EA4
:100208000F6E980EE82EFED70F2EFCD7102EFAD7B9
:1002180000D07F0E136E810E1324F66EF76A7E0EE1
:10022800F72208006F00D4FF01F0810E1324F66E48
:10023800F76A7E0EF72208006F00D4FF02F0810EE5
:100248001324F66EF76A7E0EF7220800F55075EC57
:1002580003F0600004F00CF0600008F00DF060009E
:100268000CF00EF0E7EC03F0D00E0F6ECA0EE82E7D
:10027800FED70F2EFCD7132AFD0E1364CCD71468B3
:10028800810E1424F66EF76A7E0EF72208006F00BE
:10029800D4FF01F0810E1424F66EF76A7E0EF72261
:1002A80008006F00D4FF02F0810E1424F66EF76A7E
:1002B8007E0EF7220800F55075EC03F0600004F09C
:1002C8000CF0600008F00DF060000CF00EF0E7ECA8
:1002D80003F0D00E0F6ECA0EE82EFED70F2EFCD7F5
:1002E8001406800E1460CCD73F0E086E1F0E096EE0
:1002F800000E0A6E000E0B6EC3EC03F0600020F0D7
:100308000CF0600024F00DF0600028F00EF0E7EC2F
:1003180003F0210E106E780E0F6E980EE82EFED7A1
:100328000F2EFCD7102EFAD700D0D90E086E740EF7
:10033800096E000E0A6E000E0B6EC3EC03F060002F
:1003480020F00CF0600024F00DF0600028F00EF0B2
:10035800E7EC03F0210E106E780E0F6E980EE82E63
:10036800FED70F2EFCD7102EFAD700D0FF0E086E3E
:10037800DB0E096E7F0E0A6E000E0B6EC3EC03F0E7
:10038800600020F00CF0600024F00DF0600028F010
:100398000EF0E7EC03F0210E106E780E0F6E980E3B
:1003A800E82EFED70F2EFCD7102EFAD700D0CC0E91
:1003B800086ECC0E096E390E0A6E000E0B6EC3EC79
:1003C80003F0600020F00CF0600024F00DF06000F5
:1003D80028F00EF0E7EC03F0210E106E780E0F6E89
:1003E800980EE82EFED70F2EFCD7102EFAD700D085
:1003F800700E086E990E096E3D0E0A6E000E0B6E99
:10040800C3EC03F0600020F00CF0600024F00DF065
:10041800600028F00EF0E7EC03F0210E106E780E65
:100428000F6E980EE82EFED70F2EFCD7102EFAD797
:1004380000D0400E086ECC0E096E2E0E0A6E000E0D
:100448000B6EC3EC03F0600020F00CF0600024F0A9
:100458000DF0600028F00EF0E7EC03F0210E106EAE
:10046800780E0F6E980EE82EFED70F2EFCD7102EA2
:10047800FAD700D0700E086EFF0E096E010E0A6ED4
:10048800000E0B6EC3EC03F0600020F00CF060006F
:1004980024F00DF0600028F00EF0E7EC03F0210ED8
:1004A800106E780E0F6E980EE82EFED70F2EFCD722
:1004B800102EFAD700D0000E086EDC0E096EFF0E63
:1004C8000A6E000E0B6EC3EC03F0600020F00CF017
:1004D800600024F00DF0600028F00EF0E7EC03F067
:1004E800210E106E780E0F6E980EE82EFED70F2E86
:1004F800FCD7102EFAD700D01B0E086E850E096E99
:10050800FF0E0A6E000E0B6EC3EC03F0600020F0C5
:100518000CF0600024F00DF0600028F00EF0E7EC1D
:1005280003F0210E106E780E0F6E980EE82EFED78F
:100538000F2EFCD7102EFAD700D0360E086E410EBB
:10054800096EFF0E0A6E000E0B6EC3EC03F060001E
:1005580020F00CF0600024F00DF0600028F00EF0A0
:10056800E7EC03F0210E106E780E0F6E980EE82E51
:10057800FED70F2EFCD7102EFAD700D04B0E086EE0
:10058800140E096E850E0A6E000E0B6EC3EC03F096
:10059800600020F00CF0600024F00DF0600028F0FE
:1005A8000EF0E7EC03F0210E106E780E0F6E980E29
:1005B800E82EFED70F2EFCD7102EFAD700D0BE0E8D
:1005C800086E120E096EF00E0A6E000E0B6EC3EC6A
:1005D80003F0600020F00CF0600024F00DF06000E3
:1005E80028F00EF0E7EC03F0210E106E780E0F6E77
:1005F800980EE82EFED70F2EFCD7102EFAD700D073
:10060800C90E086E0D0E096EB10E0A6E000E0B6E45
:10061800C3EC03F0600020F00CF0600024F00DF053
:10062800600028F00EF0E7EC03F0210E106E780E53
:100638000F6E980EE82EFED70F2EFCD7102EFAD785
:1006480000D0000E156E1968000E1A6E000E1B6E93
:10065800000E126E1550D8A406D01A2A1A28D8A44B
:1006680002D0010E156E1504D8A406D0190619502B
:10067800D8A402D0020E156E020E1518D8A406D002
:100688001B2A1B28D8A402D0030E156E030E1518BA
:10069800D8A406D01A061A50D8A402D0040E156E93
:1006A800040E1518D8A406D0192A1928D8A402D0DF
:1006B800050E156E050E1518D8A406D01B061B507E
:1006C800D8A402D0000E156E0B0E0F6E620EE82E27
:1006D800FED70F2EFCD700D0122A040E1264BAD708
:1006E8003ED5046E810E0424F66EF76A7E0EF7225C
:1006F80008006F00D4FF05F0810E0124F66EF76A3A
:100708007E0EF72208006F00D4FF06F0810E022447
:10071800F66EF76A7E0EF72208006F00D4FF07F026
:10072800600014F001F0600018F002F060001CF0A6
:1007380003F012001828D8A40CD0000E186E1C5014
:10074800FE0BBA121C50FE0BBD121C50FE0BBC1245
:1007580001D0182A19501818D8A402D0010EBA16B8
:100768001A501818D8A402D0010EBD161B5018181C
:10077800D8A402D0010EBC163901A39F1100600055
:1007880024F001F0600020F002F00A5075EC03F04C
:10079800600004F008F0600008F009F060000CF058
:1007A8000AF0120000EE16F00D0EEE6AE806FDE102
:1007B800080ED56E000ED66E000ED76E000EF86EBF
:1007C800000159EF00F0600030F019F0600034F0DB
:0A07D8001AF0600038F01BF0120068
:0207E400110002
:107E800000000000000000000000000000000000F2
:107E900000000000000000000000000000010101DF
:107EA00001010101010101010101020202020202BC
:107EB000020203030303030303040404040405058B
:107EC0000505060606060707070708080809090941
:107ED0000A0A0A0B0B0B0C0C0D0D0D0E0E0F0F10DA
:107EE0001011111212131314141515161617181851
:107EF00019191A1B1B1C1D1D1E1F202021222323A4
:107F0000242526272728292A2B2C2D2E2F303132C5
:107F1000323334363738393A3B3C3D3E3F404243BA
:107F200044454648494A4B4D4E4F5152535556577A
:107F3000595A5C5D5F606263656668696B6D6E70FF
:107F400072737577787A7C7E7F81838587898A8C46
:107F50008E90929496989A9C9EA0A2A4A7A9ABAD4D
:107F6000AFB1B4B6B8BABDBFC1C4C6C8CBCDD0D20C
:107F7000D5D7DADCDFE1E4E7E9ECEFF1F4F7F9FC7F
:107F8000FF00000000DCCFD1350000000000C0156C
:107F90003F6042A20D70A5EC363BAAB83F4F387641
:107FA0003F3CAA38338CBEBF350072313F18723166
:107FB0003F4CBB31330EEADDB555B38A38610B3621
:107FC000BBABAA2A3E42F1533E55326C3E05A38B11
:107FD0003EABAAAA3EB76DDB3E9A99193F6042A21A
:107FE0000DCAF249710000804B0000803F0000C0C4
:0F7FF0003F00AAB83FC623F6B80040763F000016
:020000040020DA
:10000000FF0FFF0FFF0FFF0FFF0FFF0FFF0FFF0F80
:020000040030CA
:0A0000008CF7FFF79FFFFFFFFFFFE3
:00000001FF
